:100000000C9434000C9451000C9453000C94510047
:100010000C9451000C9451000C9451000C9451001C
:100020000C9451000C94C7000C9451000C9469007E
:100030000C9451000C9451000C945D000C945100F0
:100040000C9451000C9451000C9450010C945100EC
:100050000C9451000C9451000C9451000C945100DC
:100060000C9451000C94510011241FBECFEFD8E026
:10007000DEBFCDBF11E0A0E0B1E0E4EDF1E102C0F0
:1000800005900D92A638B107D9F721E0A6E8B1E0B6
:1000900001C01D92AB38B207E1F70E948B010C94AE
:1000A000E8080C9400001F920F920FB60F921124D3
:1000B0000F900FBE0F901F9018951F920F920FB6C2
:1000C0000F9211245A9A5A980F900FBE0F901F90BA
:1000D00018951F920F920FB60F9211242F933F93F2
:1000E0004F935F936F937F938F939F93AF93BF9340
:1000F000EF93FF93409106015091070128EE33E002
:10010000429FC001439F900D529F900D11249F93D9
:100110008F9388E091E09F938F930E948802609173
:10012000060170910701072E000C880B990B0E94A5
:1001300072032FE632E143E85AE30E94CE020E94A6
:100140003A03709307016093060180910601909134
:1001500007010F900F900F900F908031974231F46C
:1001600089E19CEF9093070180930601FF91EF9145
:10017000BF91AF919F918F917F916F915F914F91BF
:100180003F912F910F900FBE0F901F9018951F92C7
:100190000F920FB60F9211242F933F934F935F93BB
:1001A0006F937F938F939F93AF93BF93EF93FF933F
:1001B000809186018F5F8093860180918601837094
:1001C0008093860181E10E94110218B820910601F6
:1001D0003091070148EE53E0249FB001259F700D38
:1001E000349F700D1124909186019130E9F190F1C6
:1001F000923001F1933019F480E00E941102E091F5
:100200008601F0E0E45FFE4F808188B984E6809348
:10021000B200FF91EF91BF91AF919F918F917F912C
:100220006F915F914F913F912F910F900FBE0F9063
:100230001F901895CB010996099770F12AE030E0DC
:10024000CB01B9010E94FE0361157105C1F2CB011A
:10025000B9011CC06D397F4FFCF02115310579F2D1
:10026000C9016AE070E012C0CB018D599F4F8A35F9
:10027000910590F0CB0164E670E00E94FE036115E9
:10028000710509F4BCCFCB016AE070E00E94FE0367
:1002900087FFB3CF8195B1CF80E10E941102AFCF2C
:1002A0001F920F920FB60F9211242F933F934F93EB
:1002B0005F936F937F938F939F93AF93BF93EF93CE
:1002C000FF93CF93DF931F92CDB7DEB70E948102D9
:1002D0008983CE0101960E94B20590930701809315
:1002E000060180910601909107010E947A020F9009
:1002F000DF91CF91FF91EF91BF91AF919F918F913E
:100300007F916F915F914F913F912F910F900FBE11
:100310000F901F9018958FEF84B987B9C4E0CAB9C0
:1003200061E080EC92E10E9419021F92D3E0DF931A
:1003300080E191E09F938F930E9488028091B100A9
:1003400083608093B1008091B1008093B10080916F
:10035000700081608093700088E28093B3001F92E8
:10036000CF9386E291E09F938F930E9488028091C1
:10037000800080938000809180008B7F809380003C
:100380008091810080938100809181008B7F809398
:1003900081001F92CF9387E391E09F938F930E94F8
:1003A000880285B5846085BD85B585BD81E49FE003
:1003B00090938900809388001F9282E08F938DE450
:1003C00091E09F938F930E94880284B5826084BDE0
:1003D00084B584BD85B585BD85B58D7F85BD1F92EE
:1003E000DF938EE591E09F938F930E94880285B5FD
:1003F000836085BD85B585BD82EC8093B300809117
:100400006E00826080936E00C0936900E99A7894D0
:100410008DB79EB744960FB6F8949EBF0FBE8DBFA2
:10042000FFCFE82FF0E0EC58FE4F8081809585B932
:100430000895AF92BF92CF92DF92EF92FF920F9307
:100440001F93CF93DF93613009F449C0E8F1623024
:10045000A9F45C01C12CD12CE12CF12C00E010E0BE
:1004600028E438EE41E050E060E070E080E090E0A9
:100470000E941404AFEF0E94710402C020E030E03B
:100480003093C5002093C4008091C0008D7F80937D
:10049000C0008091C10080688093C1008091C1003C
:1004A00088618093C1008091C20086608093C20001
:1004B0007894DF91CF911F910F91FF90EF90DF9093
:1004C000CF90BF90AF9008955C01C12CD12CE12C4E
:1004D000F12C00E010E020E231EA47E0C4CF5C01FB
:1004E000C12CD12CE12CF12C00E010E024E234EFFF
:1004F00040E0B9CF9091C00095FFFCCF8093C6003B
:1005000008958091C00085FFFCCF8091C6000895BA
:10051000CF92DF92EF92FF920F931F93CF93DF93CF
:10052000CDB7DEB7CE010B96FC01C190D1907F0113
:100530008EE190E00E9491048C019701A6016EE18A
:1005400070E00E94D805892BD9F0F8019081992399
:1005500059F0F80131968091C00085FFFCCF90934F
:10056000C60091919111F7CFC8010E942905DF9132
:10057000CF911F910F91FF90EF90DF90CF90089552
:10058000C8010E94290580E090E00E9491048C013E
:10059000A701B6010E940406D8CF5058BB27AA274E
:1005A0000E94E5020C94C4030E94B60338F00E9436
:1005B000BD0320F039F49F3F19F426F40C94B303E3
:1005C0000EF4E095E7FB0C94AD03E92F0E94D503F0
:1005D00058F3BA17620773078407950720F079F478
:1005E000A6F50C94F7030EF4E0950B2EBA2FA02D70
:1005F0000B01B90190010C01CA01A0011124FF27D0
:10060000591B99F0593F50F4503E68F11A16F040CA
:10061000A22F232F342F4427585FF3CF46953795C9
:100620002795A795F0405395C9F77EF41F16BA0B8E
:10063000620B730B840BBAF09150A1F0FF0FBB1F3C
:10064000661F771F881FC2F70EC0BA0F621F731F85
:10065000841F48F4879577956795B795F7959E3FE2
:1006600008F0B0CF9395880F08F09927EE0F979573
:10067000879508950E9441036894B1110C94F80382
:1006800008950E94DD0388F09F5798F0B92F9927AD
:10069000B751B0F0E1F0660F771F881F991F1AF06D
:1006A000BA95C9F714C0B13091F00E94F703B1E0D8
:1006B00008950C94F703672F782F8827B85F39F0D7
:1006C000B93FCCF3869577956795B395D9F73EF406
:1006D00090958095709561957F4F8F4F9F4F0895AE
:1006E000E89409C097FB3EF49095809570956195CC
:1006F0007F4F8F4F9F4F9923A9F0F92F96E9BB2782
:100700009395F695879577956795B795F111F8CFFD
:10071000FAF4BB0F11F460FF1BC06F5F7F4F8F4F68
:100720009F4F16C0882311F096E911C0772321F05E
:100730009EE8872F762F05C0662371F096E8862FF6
:1007400070E060E02AF09A95660F771F881FDAF74D
:10075000880F9695879597F9089597F99F6780E890
:1007600070E060E008959FEF80EC089500240A9403
:100770001616170618060906089500240A9412167C
:100780001306140605060895092E0394000C11F4AF
:10079000882352F0BB0F40F4BF2B11F460FF04C05C
:1007A0006F5F7F4F8F4F9F4F089557FD9058440FB5
:1007B000551F59F05F3F71F04795880F97FB991FC0
:1007C00061F09F3F79F0879508951216130614067D
:1007D000551FF2CF4695F1DF08C01616170618060A
:1007E000991FF1CF86957105610508940895E894E5
:1007F000BB2766277727CB0197F9089597FB072E2C
:1008000016F4009407D077FD09D00E947D0407FC00
:1008100005D03EF4909581959F4F08957095619510
:100820007F4F0895689401C0E8948F929F92CF9370
:10083000DF930E942004DF91CF919F908F900895C5
:1008400088249924F401E401B0E49F93AA279A151F
:100850008B049C04ED05FE05CF05D007A10798F495
:10086000AD2FDC2FCF2FFE2FE92D982C892E982F1E
:10087000872F762F652F542F432F322F2227B850E2
:1008800031F7BF9127C01B2EBF91BB27220F331F0B
:10089000441F551F661F771F881F991F881C991CAE
:1008A000EE1FFF1FCC1FDD1FAA1FBB1F8A149B0456
:1008B000EC05FD05CE05DF05A007B10748F08A1855
:1008C0009B08EC09FD09CE09DF09A00BB10B2160E3
:1008D0001A94E1F62EF49401AF01BE01CD01000C93
:1008E00008950024A7FD00942A0F301D401D501DBF
:1008F000601D701D801D901D0895AA1BBB1B51E13A
:1009000007C0AA1FBB1FA617B70710F0A61BB70B7F
:10091000881F991F5A95A9F780959095BC01CD0124
:1009200008950F931F93CF93DF938230910510F4B6
:1009300082E090E0E0918901F0918A0120E030E0CE
:10094000A0E0B0E0309719F140815181028113811C
:1009500048175907C8F08417950769F4109731F0C4
:1009600012960C93129713961C9327C0009389013B
:1009700010938A0122C02115310519F0421753073F
:1009800018F49A01BD01EF01DF01F801DBCF211559
:100990003105F9F0281B390B2430310580F48A81A8
:1009A0009B816115710521F0FB019383828304C053
:1009B00090938A0180938901FE01329644C0FE0122
:1009C000E20FF31F819391932250310939832883D9
:1009D0003AC02091870130918801232B41F4209166
:1009E0000201309103013093880120938701209107
:1009F0000001309101012115310541F42DB73EB7B9
:100A00004091040150910501241B350BE0918701B1
:100A1000F0918801E217F307A0F42E1B3F0B281773
:100A2000390778F0AC014E5F5F4F2417350748F067
:100A30004E0F5F1F509388014093870181939193DC
:100A400002C0E0E0F0E0CF01DF91CF911F910F9164
:100A50000895CF93DF93009709F481C0FC0132978A
:100A600013821282A0918901B0918A01109781F4BA
:100A700020813181820F931F20918701309188015D
:100A80002817390751F5F0938801E093870167C073
:100A9000ED0120E030E0CE17DF0740F44A815B81B2
:100AA0009E0141155105F1F0EA01F5CFD383C283D0
:100AB00040815181840F951FC817D90759F4888147
:100AC0009981840F951F0296918380838A819B81EF
:100AD000938382832115310529F4F0938A01E093F1
:100AE00089013DC0E901FB83EA8349915991C40F13
:100AF000D51FEC17FD0761F480819181840F951F4C
:100B00000296E90199838883828193819B838A83FA
:100B1000E0E0F0E012968D919C911397009719F008
:100B2000FD01DC01F7CF8D919C9111979D012E5F06
:100B30003F4F820F931F2091870130918801281722
:100B4000390769F4309729F410928A0110928901CB
:100B500002C013821282B0938801A0938701DF91B3
:100B6000CF910895FC0188279927E894219120329C
:100B7000E9F3293010F02E30C8F32B3241F02D323A
:100B800039F4689404C00E94D005820F911D219110
:100B900020532A30C0F31EF4909581959F4F0895FD
:100BA0007AE0979F902D879F802D910D11240895B5
:100BB000AEE0B0E0EEEDF5E00C94BF088C01FA0178
:100BC00086E08C831A83098377FF02C060E070E8B7
:100BD000CB0101979E838D83A901BF01CE010196B0
:100BE0000E9420064D815E8157FD0AC02F81388505
:100BF000421753070CF49A01F801E20FF31F108219
:100C00002E96E4E00C94DB08AEE0B0E0EAE0F6E01B
:100C10000C94BF088C0186E08C831A8309838FEFC4
:100C20009FE79E838D83CE0101960E942006EF816F
:100C3000F885E00FF11F10822E96E4E00C94DB089B
:100C4000ABE0B0E0E6E2F6E00C94B1086C017B01A9
:100C50008A01FC0117821682838181FFCCC1CE01FB
:100C600001963C01F6019381F70193FD859193FF75
:100C700081917F01882309F4BAC1853239F493FD4B
:100C8000859193FF81917F01853229F4B60190E02F
:100C90000E941708E7CF912C212C312CFFE1F3158E
:100CA000D8F08B3279F038F4803279F08332A1F4C5
:100CB000232D20611DC08D3261F0803369F4232D16
:100CC000216016C0832D8260382EE32DE4603E2E15
:100CD0002AC0F32DF8601DC037FC2DC020ED280F71
:100CE0002A3040F08E32B9F436FC81C1232D2064C5
:100CF000322E19C036FE06C08AE0989E200D1124BF
:100D0000922E11C0EAE02E9E200D1124222EF32DEA
:100D1000F0623F2E08C08C3621F4832D8068382E77
:100D200002C0883641F4F70193FD859193FF8191CC
:100D30007F018111B3CF982F9F7D9554933028F474
:100D40000C5F1F4F9FE399830DC0833631F08337CB
:100D500071F0833509F059C021C0F8018081898381
:100D60000E5F1F4F88248394912C530113C02801D8
:100D7000F2E04F0E511CF801A080B18036FE03C096
:100D8000692D70E002C06FEF7FEFC5010E940C0873
:100D90004C018201F32DFF773F2E16C0280122E07F
:100DA000420E511CF801A080B18036FE03C0692DAF
:100DB00070E002C06FEF7FEFC5010E9401084C0197
:100DC000F32DF0683F2E820133FC1BC0822D90E092
:100DD00088169906B0F4B60180E290E00E941708E8
:100DE0002A94F4CFF50137FC859137FE81915F019C
:100DF000B60190E00E94170821102A9421E0821A7F
:100E000091088114910471F7E8C0843611F0893695
:100E100041F5F80137FE07C06081718182819381BD
:100E20000C5F1F4F08C060817181072E000C880B7A
:100E3000990B0E5F1F4FF32DFF763F2E97FF09C0D2
:100E400090958095709561957F4F8F4F9F4FF0687B
:100E50003F2E2AE030E0A3010E945308882E861816
:100E600045C0853731F4232D2F7EB22E2AE030E0A5
:100E700025C0932D997FB92E8F36C1F018F488358F
:100E800079F0B5C0803719F0883721F0B0C0E92F6C
:100E9000E061BE2EB4FE0DC0FB2DF460BF2E09C074
:100EA00034FE0AC0292F2660B22E06C028E030E0AA
:100EB00005C020E130E002C020E132E0F801B7FED9
:100EC00007C060817181828193810C5F1F4F06C0D2
:100ED0006081718180E090E00E5F1F4FA3010E944E
:100EE0005308882E8618FB2DFF773F2E36FE0DC047
:100EF000232D2E7FA22E891458F434FE0BC032FC11
:100F000009C0832D8E7EA82E05C0B82CA32C03C04B
:100F1000B82C01C0B92CA4FE0FC0FE01E80DF11DD4
:100F20008081803321F49A2D997EA92E09C0A2FEDA
:100F300006C0B394B39404C08A2D867809F0B394A4
:100F4000A3FC11C0A0FE06C0B21488F4280C922C99
:100F50009B180EC0B21460F4B60180E290E00E94CB
:100F60001708B394F7CFB21418F42B1802C0982CBA
:100F7000212CA4FE10C0B60180E390E00E94170867
:100F8000A2FE17C0A1FC03C088E790E002C088E57C
:100F900090E0B6010CC08A2D867859F0A1FE02C0FF
:100FA0008BE201C080E2A7FC8DE2B60190E00E94D6
:100FB0001708891438F4B60180E390E00E941708FE
:100FC0009A94F7CF8A94F301E80DF11D8081B60160
:100FD00090E00E9417088110F5CF222009F442CE3C
:100FE000B60180E290E00E9417082A94F6CFF6013D
:100FF0008681978102C08FEF9FEF2B96E2E10C94E0
:10100000CD08FC010590615070400110D8F7809523
:1010100090958E0F9F1F0895FC01615070400190C4
:101020000110D8F7809590958E0F9F1F08950F930C
:101030001F93CF93DF93FB01238121FD03C08FEF2B
:101040009FEF2CC022FF16C0468157812481358135
:101050004217530744F4A081B1819D012F5F3F4F98
:10106000318320838C93268137812F5F3F4F3783D5
:10107000268314C08B01EC01FB010084F185E02D77
:101080000995892BE1F6D80116968D919C911797B9
:10109000019617969C938E931697CE01DF91CF9170
:1010A0001F910F910895FA01AA27283051F120319C
:1010B00081F1E8946F936E7F6E5F7F4F8F4F9F4FEC
:1010C000AF4FB1E03ED0B4E03CD0670F781F891F2E
:1010D0009A1FA11D680F791F8A1F911DA11D6A0FFC
:1010E000711D811D911DA11D20D009F468943F91AF
:1010F0002AE0269F11243019305D3193DEF6CF01AE
:101100000895462F4770405D4193B3E00FD0C9F773
:10111000F6CF462F4F70405D4A3318F0495D31FDE0
:101120004052419302D0A9F7EACFB4E0A695979533
:10113000879577956795BA95C9F700976105710509
:1011400008959B01AC010A2E069457954795379553
:101150002795BA95C9F7620F731F841F951FA01DAD
:1011600008952F923F924F925F926F927F928F924B
:101170009F92AF92BF92CF92DF92EF92FF920F9326
:101180001F93CF93DF93CDB7DEB7CA1BDB0B0FB630
:10119000F894DEBF0FBECDBF09942A8839884888ED
:1011A0005F846E847D848C849B84AA84B984C88483
:1011B000DF80EE80FD800C811B81AA81B981CE0F7A
:1011C000D11D0FB6F894DEBF0FBECDBFED0108955F
:0411D000F894FFCFC1
:1011D40000008B012000040025640A001020010295
:1011E400543220736574207072657363616C657228
:1011F4003A2025690A00543120736574206D6F64A8
:10120400653A2025690A0054312073657420707290
:10121400657363616C65723A2025690A0054302055
:10122400736574206D6F64653A2025690A00543033
:1012340020736574207072657363616C65723A2003
:1012440025690A006F09A7ADC9ECEE29EFE9EBCED9
:06125400868FE6E2800037
:00000001FF
