:100000000C9434000C9453000C9462000C94510036
:100010000C9451000C9451000C9451000C944C0120
:100020000C9451000C9451000C9451000C94240138
:100030000C9451000C9451000C9451000C945100FC
:100040000C9451000C9451000C94D8010C94510064
:100050000C9451000C9451000C9451000C945100DC
:100060000C9451000C94510011241FBECFEFD8E026
:10007000DEBFCDBF11E0A0E0B1E0EEE4FBE002C0E6
:1000800005900D92A831B107D9F721E0A8E1B1E0C0
:1000900001C01D92A332B207E1F70E9413020C9433
:1000A000A5050C9400001F920F920FB60F92112419
:1000B0008F9386B5809322018F910F900FBE0F9082
:1000C0001F9018951F920F920FB60F921124CF9286
:1000D000DF92EF92FF922F933F934F935F936F9333
:1000E0007F938F939F93AF93BF93CF93DF93EF93C0
:1000F000FF9386B590912201E0911901EF5FE770BF
:10010000E0931901CAE1D1E0F0E0E65EFE4F891B01
:100110008083688170E080E090E00E94F30320E03B
:1001200030E0A9010E94DD026B017C01698170E071
:1001300080E090E00E94F303A70196010E94DD0297
:100140006B017C016A8170E080E090E00E94F30323
:10015000A70196010E94DD026B017C016B8170E0BA
:1001600080E090E00E94F303A70196010E94DD0267
:100170006B017C016C8170E080E090E00E94F303F1
:10018000A70196010E94DD026B017C016D8170E088
:1001900080E090E00E94F303A70196010E94DD0237
:1001A0006B017C016E8170E080E090E00E94F303BF
:1001B000A70196010E94DD026B017C016F8170E056
:1001C00080E090E00E94F303A70196010E94DD0207
:1001D00020E030E040E05EE30E947F0420E030E871
:1001E0004BEA53E40E947F0420E034E244EF56E4FB
:1001F0000E94490329EA33E140ED5CE30E94490390
:100200006B017C010E94BB037093010160930001AC
:10021000C701B6010E94C20368BDFF91EF91DF9153
:10022000CF91BF91AF919F918F917F916F915F918E
:100230004F913F912F91FF90EF90DF90CF900F90D3
:100240000FBE0F901F9018951F920F920FB60F922E
:1002500011248F939F93CF93DF9300D0CDB7DEB758
:100260005C9A1A82198289819A8197FF09C08981D3
:100270009A8101969A83898389819A8197FDF7CF24
:100280005C980F900F90DF91CF919F918F910F907D
:100290000FBE0F901F9018951F920F920FB60F92DE
:1002A00011242F933F934F935F936F937F938F937B
:1002B0009F93AF93BF93EF93FF93809118018F5F4C
:1002C000809318018091180183708093180181E157
:1002D0000E94650218B820910001309101019091AF
:1002E0001801913009F44DC0C0F1923031F19330D2
:1002F00049F4C9016AE070E00E94EC0487FD56C031
:100300000E946502E0911801F0E0EE5FFE4F8081EF
:1003100088B984E68093B200FF91EF91BF91AF91CD
:100320009F918F917F916F915F914F913F912F910D
:100330000F900FBE0F901F901895C901099609974D
:1003400088F1EAE0F0E0C901BF010E94EC04611508
:100350007105C1F2CB01BF01CFCF2D398FEF380727
:100360000CF1C90168EE73E00E94EC04611571059F
:1003700049F2CB016AE070E00E94EC040E94650241
:10038000C1CFC9018D599F4F8A35910558F0C901D8
:1003900064E670E00E94EC046115710509F4B2CFC7
:1003A000CB01A8CF80E10E946502ACCF8195A8CF98
:1003B0001F920F920FB60F9211242F933F934F93DA
:1003C0005F936F937F938F939F93AF93BF93EF93BD
:1003D000FF93CF93DF931F92CDB7DEB70E94D50274
:1003E0008983CE0101960E947F059093010180933D
:1003F000000180910001909101010E94CE020F90B6
:10040000DF91CF91FF91EF91BF91AF919F918F912C
:100410007F916F915F914F913F912F910F900FBE00
:100420000F901F90189581E0809381008FEF84B921
:1004300087B980E38AB98FED8BB961E080EC92E1F6
:100440000E946D028091B00082608093B000809124
:10045000B0008E7F8093B0008091B1008093B10096
:100460008091B100877F8093B1008091B10084605A
:100470008093B1008091B1008C7F8093B10092E0B5
:10048000909370008BEC8093B30080918000807F0C
:100490008093800080918100807B8A6080938100BE
:1004A00020E43FE1309389002093880090936F000F
:1004B00083E284BD8BE085BD92EC97BD809369009B
:1004C0008DB383608DBB7894FFCFE82FF0E0EA5FB7
:1004D000FE4F8081809585B90895AF92BF92CF92EB
:1004E000DF92EF92FF920F931F93CF93DF936130D0
:1004F00009F449C0E8F16230A9F45C01C12CD12CA7
:10050000E12CF12C00E010E028E438EE41E050E06E
:1005100060E070E080E090E00E940205AFEF0E9492
:100520005F0502C020E030E03093C5002093C40096
:100530008091C0008D7F8093C0008091C100806851
:100540008093C1008091C10088618093C100809137
:10055000C20086608093C2007894DF91CF911F9192
:100560000F91FF90EF90DF90CF90BF90AF900895E4
:100570005C01C12CD12CE12CF12C00E010E020E238
:1005800031EA47E0C4CF5C01C12CD12CE12CF12C25
:1005900000E010E024E234EF40E0B9CF9091C000D9
:1005A00095FFFCCF8093C60008958091C00085FF21
:1005B000FCCF8091C60008955058BB27AA270E94FF
:1005C000F4020C9445040E94370438F00E943E0463
:1005D00020F039F49F3F19F426F40C9434040EF4FF
:1005E000E095E7FB0C942E04E92F0E94560458F383
:1005F000BA17620773078407950720F079F4A6F508
:100600000C9478040EF4E0950B2EBA2FA02D0B015C
:10061000B90190010C01CA01A0011124FF27591B47
:1006200099F0593F50F4503E68F11A16F040A22F4D
:10063000232F342F4427585FF3CF469537952795BE
:10064000A795F0405395C9F77EF41F16BA0B620BBD
:10065000730B840BBAF09150A1F0FF0FBB1F661F04
:10066000771F881FC2F70EC0BA0F621F731F841F47
:1006700048F4879577956795B795F7959E3F08F06D
:10068000B0CF9395880F08F09927EE0F979587952F
:1006900008950E945D030C9445040E943E0458F0A6
:1006A0000E94370440F029F45F3F29F00C942E0497
:1006B00051110C9479040C9434040E94560468F38C
:1006C0009923B1F3552391F3951B550BBB27AA270B
:1006D00062177307840738F09F5F5F4F220F331F45
:1006E000441FAA1FA9F335D00E2E3AF0E0E832D00D
:1006F00091505040E695001CCAF72BD0FE2F29D010
:10070000660F771F881FBB1F261737074807AB07E1
:10071000B0E809F0BB0B802DBF01FF2793585F4F56
:100720003AF09E3F510578F00C942E040C94790415
:100730005F3FE4F3983ED4F3869577956795B79538
:10074000F7959F5FC9F7880F911D9695879597F943
:100750000895E1E0660F771F881FBB1F62177307BC
:100760008407BA0720F0621B730B840BBA0BEE1FD1
:1007700088F7E09508950E94C2036894B1110C9423
:10078000790408950E945E0488F09F5798F0B92F6D
:100790009927B751B0F0E1F0660F771F881F991FB6
:1007A0001AF0BA95C9F714C0B13091F00E947804DC
:1007B000B1E008950C947804672F782F8827B85FEC
:1007C00039F0B93FCCF3869577956795B395D9F70E
:1007D0003EF490958095709561957F4F8F4F9F4F18
:1007E0000895E89409C097FB3EF490958095709524
:1007F00061957F4F8F4F9F4F9923A9F0F92F96E96D
:10080000BB279395F695879577956795B795F111E1
:10081000F8CFFAF4BB0F11F460FF1BC06F5F7F4F7E
:100820008F4F9F4F16C0882311F096E911C0772390
:1008300021F09EE8872F762F05C0662371F096E899
:10084000862F70E060E02AF09A95660F771F881F68
:10085000DAF7880F9695879597F9089597F99F6726
:1008600080E870E060E008959FEF80EC0895002438
:100870000A941616170618060906089500240A9405
:1008800012161306140605060895092E0394000C8B
:1008900011F4882352F0BB0F40F4BF2B11F460FF1A
:1008A00004C06F5F7F4F8F4F9F4F089557FD905843
:1008B000440F551F59F05F3F71F04795880F97FB24
:1008C000991F61F09F3F79F08795089512161306DE
:1008D0001406551FF2CF4695F1DF08C0161617060D
:1008E0001806991FF1CF8695710561050894089542
:1008F000E894BB2766277727CB0197F908950E94D4
:1009000092040C9445040E94370438F00E943E047F
:1009100020F0952311F00C942E040C94340411242F
:100920000C9479040E94560470F3959FC1F3950FBF
:1009300050E0551F629FF001729FBB27F00DB11D63
:10094000639FAA27F00DB11DAA1F649F6627B00DF3
:10095000A11D661F829F2227B00DA11D621F739FDC
:10096000B00DA11D621F839FA00D611D221F749FEA
:100970003327A00D611D231F849F600D211D822F31
:10098000762F6A2F11249F5750409AF0F1F0882358
:100990004AF0EE0FFF1FBB1F661F771F881F915085
:1009A0005040A9F79E3F510580F00C942E040C9402
:1009B00079045F3FE4F3983ED4F386957795679585
:1009C000B795F795E7959F5FC1F7FE2B880F911DAF
:1009D0009695879597F9089597FB072E16F400943E
:1009E00007D077FD09D00E946B0507FC05D03EF4C7
:1009F000909581959F4F0895709561957F4F0895CB
:100A0000689401C0E8948F929F92CF93DF930E94E5
:100A10000E05DF91CF919F908F900895882499249F
:100A2000F401E401B0E49F93AA279A158B049C0477
:100A3000ED05FE05CF05D007A10798F4AD2FDC2FFB
:100A4000CF2FFE2FE92D982C892E982F872F762FC8
:100A5000652F542F432F322F2227B85031F7BF91E3
:100A600027C01B2EBF91BB27220F331F441F551FCA
:100A7000661F771F881F991F881C991CEE1FFF1F78
:100A8000CC1FDD1FAA1FBB1F8A149B04EC05FD05AC
:100A9000CE05DF05A007B10748F08A189B08EC09CE
:100AA000FD09CE09DF09A00BB10B21601A94E1F614
:100AB0002EF49401AF01BE01CD01000C0895002475
:100AC000A7FD00942A0F301D401D501D601D701D94
:100AD000801D901D0895AA1BBB1B51E107C0AA1FD2
:100AE000BB1FA617B70710F0A61BB70B881F991FCF
:100AF0005A95A9F780959095BC01CD010895FC0108
:100B000088279927E89421912032E9F3293010F0C1
:100B10002E30C8F32B3241F02D3239F4689404C0E2
:100B20000E949D05820F911D219120532A30C0F310
:100B30001EF4909581959F4F08957AE0979F902D90
:0E0B4000879F802D910D11240895F894FFCF0A
:100B4E000400102001026F09A7ADC9ECEE29EFE9F0
:080B5E00EBCE868FE6E2800079
:00000001FF
