S018000077616C6C5F377365675F73657269616C2E73726563A8
S11300000C9434000C9453000C945E000C94510036
S11300100C9451000C9451000C9451000C94B100B8
S11300200C9451000C9451000C9451000C94510008
S11300300C9451000C9451000C947D000C94A60077
S11300400C9451000C9451000C943D010C945100FB
S11300500C9451000C9451000C9451000C945100D8
S11300600C9451000C94510011241FBECFEFD8E022
S1130070DEBFCDBF11E0A0E0B1E0ECE1FFE002C0E3
S113008005900D92AA39B107D9F721E0AAE9B1E0A8
S113009001C01D92AF39B207E1F70E9478010C94B8
S11300A08C070C9400001F920F920FB60F9211242C
S11300B016BC0F900FBE0F901F9018951F920F92B1
S11300C00FB60F9211242F933F938F939F93809198
S11300D084009091850086B5282F30E03093070185
S11300E020930601880F88BD9F918F913F912F9196
S11300F00F900FBE0F901F9018951F920F920FB67E
S11301000F9211248F939F93CF93DF9300D0CDB799
S1130110DEB75C9A1A82198289819A8197FF09C095
S113012089819A8101969A83898389819A8197FD2D
S1130130F7CF5C985F9A0F900F90DF91CF919F91CA
S11301408F910F900FBE0F901F9018951F920F92D2
S11301500FB60F9211245F980F900FBE0F901F904F
S113016018951F920F920FB60F9211242F933F935D
S11301704F935F936F937F938F939F93AF93BF93AB
S1130180EF93FF9380919A018F5F80939A018091FE
S11301909A01837080939A0181E10E94010218B848
S11301A0209106013091070190919A01913009F450
S11301B04DC0C0F1923031F1933049F4C9016AE085
S11301C070E00E94CE0287FD56C00E940102E091B9
S11301D09A01F0E0E85FFE4F808188B984E680935D
S11301E0B200FF91EF91BF91AF919F918F917F9159
S11301F06F915F914F913F912F910F900FBE0F9090
S11302001F901895C9010996099788F1EAE0F0E072
S1130210C901BF010E94CE0261157105C1F2CB0173
S1130220BF01CFCF2D398FEF38070CF1C90168EE2C
S113023073E00E94CE026115710549F2CB016AE0B8
S113024070E00E94CE020E940102C1CFC9018D5903
S11302509F4F8A35910558F0C90164E670E00E9409
S1130260CE026115710509F4B2CFCB01A8CF80E1AC
S11302700E940102ACCF8195A8CF1F920F920FB6B6
S11302800F9211242F933F934F935F936F937F9318
S11302908F939F93AF93BF93EF93FF93CF93DF938A
S11302A01F92CDB7DEB70E9471028983CE010196F9
S11302B00E948204909307018093060180910601B5
S11302C0909107010E946A020F90DF91CF91FF91F4
S11302D0EF91BF91AF919F918F917F916F915F91BA
S11302E04F913F912F910F900FBE0F901F90189533
S11302F08FEF84B987B980E98AB961E080EC92E133
S11303000E9409028CE091E00E9478021F92D2E0E0
S1130310DF9381E291E09F938F930E948702809103
S1130320B00082608093B0008091B0008093B000F0
S11303308091B1008093B1008091B1008D7F809352
S1130340B1001F92C4E0CF9386E391E09F938F9313
S11303500E9487028091B10084608093B1008091F3
S1130360B1008C7F8093B100809170008260809393
S113037070008BEC8093B3001F92DF9380E591E0D3
S11303809F938F930E94870284B5826084BD84B555
S113039084BD85B585BD85B58D7F85BD1F92CF9301
S11303A085E691E09F938F930E94870285B58460D0
S11303B085BD85B58C7F85BD82EC87BD80916E003F
S11303C0866080936E008BE0809369008DB38360B8
S11303D08DBB789482E48F9384E58F938CEC8F9318
S11303E08DEC8F938FE791E09F938F930E94870208
S11303F08DB79EB746960FB6F8949EBF0FBE8DBFBD
S1130400FFCFE82FF0E0E957FE4F8081809585B952
S11304100895AF92BF92CF92DF92EF92FF920F9323
S11304201F93CF93DF93613009F449C0E8F1623040
S1130430A9F45C01C12CD12CE12CF12C00E010E0DA
S113044028E438EE41E050E060E070E080E090E0C5
S11304500E94E402AFEF0E94410302C020E030E0BA
S11304603093C5002093C4008091C0008D7F809399
S1130470C0008091C10080688093C1008091C10058
S113048088618093C1008091C20086608093C2001D
S11304907894DF91CF911F910F91FF90EF90DF90AF
S11304A0CF90BF90AF9008955C01C12CD12CE12C6A
S11304B0F12C00E010E020E231EA47E0C4CF5C0117
S11304C0C12CD12CE12CF12C00E010E024E234EF1B
S11304D040E0B9CF9091C00095FFFCCF8093C60057
S11304E008958091C00085FFFCCF8091C6000895D7
S11304F0FC012081222351F031969091C00095FF98
S1130500FCCF2093C60021912111F7CF0895AF921B
S1130510BF92CF92DF92EF92FF920F931F93CF93EC
S1130520DF93CDB7DEB7CE010D96FC01C190D1901B
S11305307F018EE190E00E9461038C01A701B60166
S11305400E94A8045C014E97ECF4F8019081992371
S113055059F0F80131968091C00085FFFCCF90934B
S1130560C60091919111F7CFC8010E94F903DF9160
S1130570CF911F910F91FF90EF90DF90CF90BF909C
S1130580AF900895C8010E94F903C5010E94610358
S11305908C01A701B6010E94A804D7CF97FB072EB0
S11305A016F4009407D077FD09D00E944D0307FC90
S11305B005D03EF4909581959F4F0895709561956F
S11305C07F4F0895689401C0E8948F929F92CF93CF
S11305D0DF930E94F002DF91CF919F908F90089556
S11305E088249924F401E401B0E49F93AA279A157E
S11305F08B049C04ED05FE05CF05D007A10798F4F4
S1130600AD2FDC2FCF2FFE2FE92D982C892E982F7C
S1130610872F762F652F542F432F322F2227B85040
S113062031F7BF9127C01B2EBF91BB27220F331F69
S1130630441F551F661F771F881F991F881C991C0C
S1130640EE1FFF1FCC1FDD1FAA1FBB1F8A149B04B4
S1130650EC05FD05CE05DF05A007B10748F08A18B3
S11306609B08EC09FD09CE09DF09A00BB10B216041
S11306701A94E1F62EF49401AF01BE01CD01000CF1
S113068008950024A7FD00942A0F301D401D501D1D
S1130690601D701D801D901D0895AA1BBB1B51E198
S11306A007C0AA1FBB1FA617B70710F0A61BB70BDE
S11306B0881F991F5A95A9F780959095BC01CD0183
S11306C008950F931F93CF93DF938230910510F415
S11306D082E090E0E0919D01F0919E0120E030E005
S11306E0A0E0B0E0309719F140815181028113817B
S11306F048175907C8F08417950769F4109731F023
S113070012960C93129713961C9327C000939D0185
S113071010939E0122C02115310519F04217530789
S113072018F49A01BD01EF01DF01F801DBCF2115B7
S11307303105F9F0281B390B2430310580F48A8106
S11307409B816115710521F0FB019383828304C0B1
S113075090939E0180939D01FE01329644C0FE0158
S1130760E20FF31F81939193225031093983288337
S11307703AC020919B0130919C01232B41F420919C
S113078002013091030130939C0120939B0120913D
S11307900001309101012115310541F42DB73EB717
S11307A04091040150910501241B350BE0919B01FC
S11307B0F0919C01E217F307A0F42E1B3F0B2817BE
S11307C0390778F0AC014E5F5F4F2417350748F0C6
S11307D04E0F5F1F50939C0140939B018193919313
S11307E002C0E0E0F0E0CF01DF91CF911F910F91C3
S11307F00895CF93DF93009709F481C0FC013297E9
S113080013821282A0919D01B0919E01109781F4F0
S113081020813181820F931F20919B0130919C0193
S11308202817390751F5F0939C01E0939B0167C0A9
S1130830ED0120E030E0CE17DF0740F44A815B8110
S11308409E0141155105F1F0EA01F5CFD383C2832E
S113085040815181840F951FC817D90759F48881A5
S11308609981840F951F0296918380838A819B814D
S1130870938382832115310529F4F0939E01E0933B
S11308809D013DC0E901FB83EA8349915991C40F5D
S1130890D51FEC17FD0761F480819181840F951FAA
S11308A00296E90199838883828193819B838A8359
S11308B0E0E0F0E012968D919C911397009719F067
S11308C0FD01DC01F7CF8D919C9111979D012E5F65
S11308D03F4F820F931F20919B0130919C01281759
S11308E0390769F4309729F410929E0110929D0102
S11308F002C013821282B0939C01A0939B01DF91EA
S1130900CF910895FC0188279927E89421912032FA
S1130910E9F3293010F02E30C8F32B3241F02D3298
S113092039F4689404C00E94A004820F911D21919F
S113093020532A30C0F31EF4909581959F4F08955B
S11309407AE0979F902D879F802D910D1124089513
S1130950AEE0B0E0EEEAF4E00C9463078C0186E0CC
S11309608C831A8309838FEF9FE79E838D83CE0147
S113097001960E94C404EF81F885E00FF11F1082F4
S11309802E96E4E00C947F07ABE0B0E0EAECF4E0F0
S11309900C9455076C017B018A01FC0117821682B5
S11309A0838181FFCCC1CE0101963C01F601938184
S11309B0F70193FD859193FF81917F01882309F4C9
S11309C0BAC1853239F493FD859193FF81917F01FA
S11309D0853229F4B60190E00E94BB06E7CF912C42
S11309E0212C312CFFE1F315D8F08B3279F038F457
S11309F0803279F08332A1F4232D20611DC08D3221
S1130A0061F0803369F4232D216016C0832D826048
S1130A10382EE32DE4603E2E2AC0F32DF8601DC06D
S1130A2037FC2DC020ED280F2A3040F08E32B9F467
S1130A3036FC81C1232D2064322E19C036FE06C037
S1130A408AE0989E200D1124922E11C0EAE02E9E79
S1130A50200D1124222EF32DF0623F2E08C08C3677
S1130A6021F4832D8068382E02C0883641F4F701C2
S1130A7093FD859193FF81917F018111B3CF982FCD
S1130A809F7D9554933028F40C5F1F4F9FE3998307
S1130A900DC0833631F0833771F0833509F059C0C6
S1130AA021C0F801808189830E5F1F4F88248394BD
S1130AB0912C530113C02801F2E04F0E511CF80190
S1130AC0A080B18036FE03C0692D70E002C06FEFD4
S1130AD07FEFC5010E94B0064C018201F32DFF7720
S1130AE03F2E16C0280122E0420E511CF801A080BE
S1130AF0B18036FE03C0692D70E002C06FEF7FEF56
S1130B00C5010E94A5064C01F32DF0683F2E820119
S1130B1033FC1BC0822D90E088169906B0F4B60110
S1130B2080E290E00E94BB062A94F4CFF50137FCE2
S1130B30859137FE81915F01B60190E00E94BB066A
S1130B4021102A9421E0821A91088114910471F7EA
S1130B50E8C0843611F0893641F5F80137FE07C044
S1130B6060817181828193810C5F1F4F08C0608115
S1130B707181072E000C880B990B0E5F1F4FF32D0C
S1130B80FF763F2E97FF09C09095809570956195EB
S1130B907F4F8F4F9F4FF0683F2E2AE030E0A30134
S1130BA00E94F706882E861845C0853731F4232D18
S1130BB02F7EB22E2AE030E025C0932D997FB92EE6
S1130BC08F36C1F018F4883579F0B5C0803719F044
S1130BD0883721F0B0C0E92FE061BE2EB4FE0DC00D
S1130BE0FB2DF460BF2E09C034FE0AC0292F2660F5
S1130BF0B22E06C028E030E005C020E130E002C09B
S1130C0020E132E0F801B7FE07C060817181828182
S1130C1093810C5F1F4F06C06081718180E090E07A
S1130C200E5F1F4FA3010E94F706882E8618FB2D26
S1130C30FF773F2E36FE0DC0232D2E7FA22E891462
S1130C4058F434FE0BC032FC09C0832D8E7EA82ECE
S1130C5005C0B82CA32C03C0B82C01C0B92CA4FE29
S1130C600FC0FE01E80DF11D8081803321F49A2D1F
S1130C70997EA92E09C0A2FE06C0B394B39404C001
S1130C808A2D867809F0B394A3FC11C0A0FE06C097
S1130C90B21488F4280C922C9B180EC0B21460F481
S1130CA0B60180E290E00E94BB06B394F7CFB21481
S1130CB018F42B1802C0982C212CA4FE10C0B601E5
S1130CC080E390E00E94BB06A2FE17C0A1FC03C013
S1130CD088E790E002C088E590E0B6010CC08A2D58
S1130CE0867859F0A1FE02C08BE201C080E2A7FC25
S1130CF08DE2B60190E00E94BB06891438F4B60177
S1130D0080E390E00E94BB069A94F7CF8A94F301A3
S1130D10E80DF11D8081B60190E00E94BB068110B0
S1130D20F5CF222009F442CEB60180E290E00E9481
S1130D30BB062A94F6CFF6018681978102C08FEF15
S1130D409FEF2B96E2E10C947107FC010590615032
S1130D5070400110D8F7809590958E0F9F1F0895CD
S1130D60FC016150704001900110D8F78095909576
S1130D708E0F9F1F08950F931F93CF93DF93FB0153
S1130D80238121FD03C08FEF9FEF2CC022FF16C0EB
S1130D9046815781248135814217530744F4A08149
S1130DA0B1819D012F5F3F4F318320838C93268136
S1130DB037812F5F3F4F3783268314C08B01EC01AB
S1130DC0FB010084F185E02D0995892BE1F6D8011A
S1130DD016968D919C911797019617969C938E93D6
S1130DE01697CE01DF91CF911F910F910895FA01CB
S1130DF0AA27283051F1203181F1E8946F936E7F56
S1130E006E5F7F4F8F4F9F4FAF4FB1E03ED0B4E046
S1130E103CD0670F781F891F9A1FA11D680F791F87
S1130E208A1F911DA11D6A0F711D811D911DA11D98
S1130E3020D009F468943F912AE0269F11243019A8
S1130E40305D3193DEF6CF010895462F4770405D43
S1130E504193B3E00FD0C9F7F6CF462F4F70405DF2
S1130E604A3318F0495D31FD4052419302D0A9F74D
S1130E70EACFB4E0A6959795879577956795BA9547
S1130E80C9F700976105710508959B01AC010A2E0D
S1130E9006945795479537952795BA95C9F7620FE4
S1130EA0731F841F951FA01D08952F923F924F9288
S1130EB05F926F927F928F929F92AF92BF92CF92E6
S1130EC0DF92EF92FF920F931F93CF93DF93CDB7EF
S1130ED0DEB7CA1BDB0B0FB6F894DEBF0FBECDBF67
S1130EE009942A88398848885F846E847D848C8438
S1130EF09B84AA84B984C884DF80EE80FD800C8141
S1130F001B81AA81B981CE0FD11D0FB6F894DEBF23
S10F0F100FBECDBFED010895F894FFCF93
S1130F1C00009F0120000400102001020A0A0A0AA2
S1130F2C0A0A0A0A0A0A0A0A0A0A0A0A0A0A0A0A11
S1130F3C00543220736574206D6F64653A203078E8
S1130F4C253032580A00543220736574207072654F
S1130F5C7363616C65723A203078253032580A001C
S1130F6C543020736574206D6F64653A2030782595
S1130F7C3032580A005430207365742070726573D3
S1130F8C63616C65723A203078253032580A00302F
S1130F9C78253038780A006F09A7ADC9ECEE29EF33
S10D0FACE9EBCE868FE6E280000038
S9030000FC
