S018000077616C6C5F377365675F73657269616C2E73726563A8
S11300000C9434000C9453000C945E000C94510036
S11300100C9451000C9451000C9451000C94CF0199
S11300200C9451000C9451000C9451000C94510008
S11300300C9451000C9451000C949B010C94C40139
S11300400C9451000C9451000C945B020C945100DC
S11300500C9451000C9451000C9451000C945100D8
S11300600C9451000C94510011241FBECFEFD8E022
S1130070DEBFCDBF11E0A0E0B1E0E0E6F5E102C0F3
S113008005900D92AA32B107D9F721E0AAE2B1E0B6
S113009001C01D92A733B207E1F70E9496020C94A7
S11300A0AE0A0C9400001F920F920FB60F92112407
S11300B016BC0F900FBE0F901F9018951F920F92B1
S11300C00FB60F9211244F925F926F927F928F928C
S11300D09F92AF92BF92CF92DF92EF92FF920F93D3
S11300E02F933F934F935F936F937F938F939F933C
S11300F0AF93BF93EF93FF93E6B520912B0130911B
S11301002C0140912D0150912E0160912F0170918D
S11301103001809131019091320108E00E942C0657
S1130120832E942EA52EB62EC72ED82EE92EF22E6F
S1130130FE2AF0922B0130932C0140932D01509311
S11301402E0160932F0170933001809331019093BD
S113015032016F2D70E080E090E00E94C00420E046
S113016030E0A9010E94AA032B013C012F2D382D58
S1130170492D5A2D6B2D7C2D8D2D9E2D0E944706C9
S1130180622F70E080E090E00E94C004A30192011D
S11301900E94AA032B013C012F2D382D492D5A2DE5
S11301A06B2D7C2D8D2D9E2D00E10E944706622F24
S11301B070E080E090E00E94C004A30192010E94DC
S11301C0AA032B013C012F2D382D492D5A2D6B2DBF
S11301D07C2D8D2D9E2D08E10E944706622F70E034
S11301E080E090E00E94C004A30192010E94AA034F
S11301F02B013C012F2D382D492D5A2D6B2D7C2D93
S11302008D2D9E2D00E20E944706622F70E080E053
S113021090E00E94C004A30192010E94AA032B0152
S11302203C012F2D382D492D5A2D6B2D7C2D8D2DD4
S11302309E2D08E20E944706622F70E080E090E065
S11302400E94C004A30192010E94AA032B013C0155
S11302502F2D382D492D5A2D6B2D7C2D8D2D9E2D16
S113026000E30E944706622F70E080E090E00E9465
S1130270C004A30192010E94AA032B013C012F2D6B
S1130280382D492D5A2D6B2D7C2D8D2D9E2D08E357
S11302900E944706B901330F880B990B0E94C004D2
S11302A0A30192010E94AA0320E030E040E05EE353
S11302B00E944C056B017C0120E030E84BEA53E4DA
S11302C00E944C0520E034E244EF55E40E941604F9
S11302D029EA33E140ED5CE30E9416040E9488049D
S11302E07093070160930601A7019601C701B60147
S11302F00E94AA030E948F0468BDFF91EF91BF91F1
S1130300AF919F918F917F916F915F914F913F91A9
S11303102F910F91FF90EF90DF90CF90BF90AF900F
S11303209F908F907F906F905F904F900F900FBE33
S11303300F901F9018951F920F920FB60F921124D1
S11303408F939F93CF93DF9300D0CDB7DEB75C9AA2
S11303501A82198289819A8197FF09C089819A81B9
S113036001969A83898389819A8197FDF7CF5C9856
S11303705F9A0F900F90DF91CF919F918F910F9083
S11303800FBE0F901F9018951F920F920FB60F92E9
S113039011245F980F900FBE0F901F9018951F9215
S11303A00F920FB60F9211242F933F934F935F93A5
S11303B06F937F938F939F93AF93BF93EF93FF9329
S11303C080912A018F5F80932A0180912A01837092
S11303D080932A0181E10E94EB0218B82091060162
S11303E03091070190912A01913009F44DC0C0F178
S11303F0923031F1933049F4C9016AE070E00E940F
S1130400B90587FD56C00E94EB02E0912A01F0E095
S1130410E85FFE4F808188B984E68093B200FF9143
S1130420EF91BF91AF919F918F917F916F915F9168
S11304304F913F912F910F900FBE0F901F901895E1
S1130440C9010996099788F1EAE0F0E0C901BF0102
S11304500E94B90561157105C1F2CB01BF01CFCF6F
S11304602D398FEF38070CF1C90168EE73E00E9453
S1130470B9056115710549F2CB016AE070E00E948B
S1130480B9050E94EB02C1CFC9018D599F4F8A352E
S1130490910558F0C90164E670E00E94B905611540
S11304A0710509F4B2CFCB01A8CF80E10E94EB0221
S11304B0ACCF8195A8CF1F920F920FB60F92112443
S11304C02F933F934F935F936F937F938F939F9358
S11304D0AF93BF93EF93FF93CF93DF931F92CDB767
S11304E0DEB70E945B038983CE0101960E94A407B4
S11304F09093070180930601809106019091070172
S11305000E9454030F90DF91CF91FF91EF91BF911F
S1130510AF919F918F917F916F915F914F913F9197
S11305202F910F900FBE0F901F90189581E080932C
S113053081008FEF84B987B980E98AB98091B000CE
S113054082608093B0008091B0008E7F8093B00071
S11305508091B1008093B1008091B100877F809336
S1130560B1008091B10084608093B1008091B100AA
S11305708C7F8093B10082E0809370008BEC809339
S1130580B30084B5807F826084BD85B5807C84603F
S113059085BD82EC87BD86E080936E00C0918400A7
S11305A0D091850061E080EC92E10E94F302DF9338
S11305B0CF938CE091E09F938F930E9462038BE032
S11305C0809369008DB383608DBB78940F900F90F6
S11305D00F900F90FFCFE82FF0E0E85EFE4F808190
S11305E0809585B90895AF92BF92CF92DF92EF9232
S11305F0FF920F931F93CF93DF93613009F449C0A7
S1130600E8F16230A9F45C01C12CD12CE12CF12C6D
S113061000E010E028E438EE41E050E060E070E0F3
S113062080E090E00E94CF05AFEF0E94630602C015
S113063020E030E03093C5002093C4008091C000D6
S11306408D7F8093C0008091C10080688093C10039
S11306508091C10088618093C1008091C20086604E
S11306608093C2007894DF91CF911F910F91FF90F6
S1130670EF90DF90CF90BF90AF9008955C01C12CB4
S1130680D12CE12CF12C00E010E020E231EA47E02B
S1130690C4CF5C01C12CD12CE12CF12C00E010E082
S11306A024E234EF40E0B9CF9091C00095FFFCCF35
S11306B08093C60008958091C00085FFFCCF80918F
S11306C0C6000895AF92BF92CF92DF92EF92FF924D
S11306D00F931F93CF93DF93CDB7DEB7CE010D9663
S11306E0FC01C190D1907F018EE190E00E948306CD
S11306F08C01A701B6010E94CA075C014E97ECF475
S1130700F8019081992359F0F80131968091C00045
S113071085FFFCCF9093C60091919111F7CFC8014A
S11307200E941B07DF91CF911F910F91FF90EF90D3
S1130730DF90CF90BF90AF900895C8010E941B072F
S1130740C5010E9483068C01A701B6010E94CA0755
S1130750D7CF5058BB27AA270E94C1030C94120577
S11307600E94040538F00E940B0520F039F49F3FE5
S113077019F426F40C9401050EF4E095E7FB0C94AF
S1130780FB04E92F0E94230558F3BA176207730785
S11307908407950720F079F4A6F50C9445050EF42A
S11307A0E0950B2EBA2FA02D0B01B90190010C017D
S11307B0CA01A0011124FF27591B99F0593F50F495
S11307C0503E68F11A16F040A22F232F342F4427ED
S11307D0585FF3CF469537952795A795F0405395E5
S11307E0C9F77EF41F16BA0B620B730B840BBAF0B5
S11307F09150A1F0FF0FBB1F661F771F881FC2F720
S11308000EC0BA0F621F731F841F48F48795779533
S11308106795B795F7959E3F08F0B0CF9395880FED
S113082008F09927EE0F9795879508950E942A045A
S11308300C9412050E940B0558F00E94040540F028
S113084029F45F3F29F00C94FB0451110C944605E4
S11308500C9401050E94230568F39923B1F35523F1
S113086091F3951B550BBB27AA27621773078407BF
S113087038F09F5F5F4F220F331F441FAA1FA9F355
S113088035D00E2E3AF0E0E832D091505040E69543
S1130890001CCAF72BD0FE2F29D0660F771F881FA4
S11308A0BB1F261737074807AB07B0E809F0BB0B97
S11308B0802DBF01FF2793585F4F3AF09E3F5105AB
S11308C078F00C94FB040C9446055F3FE4F3983EE7
S11308D0D4F3869577956795B795F7959F5FC9F794
S11308E0880F911D9695879597F90895E1E0660F15
S11308F0771F881FBB1F621773078407BA0720F08E
S1130900621B730B840BBA0BEE1F88F7E0950895F6
S11309100E948F046894B1110C94460508950E94B6
S11309202B0588F09F5798F0B92F9927B751B0F04D
S1130930E1F0660F771F881F991F1AF0BA95C9F75F
S113094014C0B13091F00E944505B1E008950C94B3
S11309504505672F782F8827B85F39F0B93FCCF366
S1130960869577956795B395D9F73EF490958095DC
S1130970709561957F4F8F4F9F4F0895E89409C0FC
S113098097FB3EF490958095709561957F4F8F4FBE
S11309909F4F9923A9F0F92F96E9BB279395F695D4
S11309A0879577956795B795F111F8CFFAF4BB0F52
S11309B011F460FF1BC06F5F7F4F8F4F9F4F16C0B6
S11309C0882311F096E911C0772321F09EE8872F40
S11309D0762F05C0662371F096E8862F70E060E0FC
S11309E02AF09A95660F771F881FDAF7880F969575
S11309F0879597F9089597F99F6780E870E060E01C
S1130A0008959FEF80EC089500240A9416161706A3
S1130A1018060906089500240A94121613061406EB
S1130A2005060895092E0394000C11F4882352F04E
S1130A30BB0F40F4BF2B11F460FF04C06F5F7F4F06
S1130A408F4F9F4F089557FD9058440F551F59F0ED
S1130A505F3F71F04795880F97FB991F61F09F3FA7
S1130A6079F087950895121613061406551FF2CFD0
S1130A704695F1DF08C0161617061806991FF1CF20
S1130A8086957105610508940895E894BB27662747
S1130A907727CB0197F908950E945F050C941205FE
S1130AA00E94040538F00E940B0520F0952311F0F4
S1130AB00C94FB040C94010511240C9446050E942B
S1130AC0230570F3959FC1F3950F50E0551F629F66
S1130AD0F001729FBB27F00DB11D639FAA27F00D93
S1130AE0B11DAA1F649F6627B00DA11D661F829FBA
S1130AF02227B00DA11D621F739FB00DA11D621F9F
S1130B00839FA00D611D221F749F3327A00D611DBB
S1130B10231F849F600D211D822F762F6A2F11249D
S1130B209F5750409AF0F1F088234AF0EE0FFF1FD0
S1130B30BB1F661F771F881F91505040A9F79E3F27
S1130B40510580F00C94FB040C9446055F3FE4F3DC
S1130B50983ED4F3869577956795B795F795E7957D
S1130B609F5FC1F7FE2B880F911D9695879597F986
S1130B70089597FB072E16F4009407D077FD09D04B
S1130B800E946F0607FC05D03EF4909581959F4F17
S1130B900895709561957F4F0895689401C0E89415
S1130BA08F929F92CF93DF930E94DB05DF91CF91C9
S1130BB09F908F90089588249924F401E401B0E46F
S1130BC09F93AA279A158B049C04ED05FE05CF0577
S1130BD0D007A10798F4AD2FDC2FCF2FFE2FE92DDE
S1130BE0982C892E982F872F762F652F542F432FDB
S1130BF0322F2227B85031F7BF9127C01B2EBF9147
S1130C00BB27220F331F441F551F661F771F881FE2
S1130C10991F881C991CEE1FFF1FCC1FDD1FAA1FE4
S1130C20BB1F8A149B04EC05FD05CE05DF05A00758
S1130C30B10748F08A189B08EC09FD09CE09DF09C1
S1130C40A00BB10B21601A94E1F62EF49401AF01CC
S1130C50BE01CD01000C08950F93083090F0982F39
S1130C60872F762F652F542F432F322F222708509A
S1130C70F4CF220F331F441F551F661F771F881F91
S1130C80991F0A95B2F70F91089597FB10F81694DF
S1130C9000080F93083098F00850232F342F452F65
S1130CA0562F672F782F892F902DF4CF0594979581
S1130CB087957795679557954795379527950A951D
S1130CC0AAF70F9108950024A7FD00942A0F301D60
S1130CD0401D501D601D701D801D901D0895AA1B90
S1130CE0BB1B51E107C0AA1FBB1FA617B70710F013
S1130CF0A61BB70B881F991F5A95A9F78095909545
S1130D00BC01CD0108950F931F93CF93DF938230DD
S1130D10910510F482E090E0E0913501F091360104
S1130D2020E030E0A0E0B0E0309719F1408151813B
S1130D300281138148175907C8F08417950769F48D
S1130D40109731F012960C93129713961C9327C0A8
S1130D50009335011093360122C02115310519F095
S1130D604217530718F49A01BD01EF01DF01F8019E
S1130D70DBCF21153105F9F0281B390B243031055F
S1130D8080F48A819B816115710521F0FB019383B5
S1130D90828304C09093360180933501FE0132961C
S1130DA044C0FE01E20FF31F819391932250310955
S1130DB0398328833AC02091330130913401232BA5
S1130DC041F42091020130910301309334012093C6
S1130DD0330120910001309101012115310541F4C5
S1130DE02DB73EB74091040150910501241B350BEA
S1130DF0E0913301F0913401E217F307A0F42E1BC4
S1130E003F0B2817390778F0AC014E5F5F4F24176A
S1130E10350748F04E0F5F1F509334014093330160
S1130E208193919302C0E0E0F0E0CF01DF91CF9194
S1130E301F910F910895CF93DF93009709F481C018
S1130E40FC01329713821282A0913501B0913601D0
S1130E50109781F420813181820F931F20913301F7
S1130E60309134012817390751F5F0933401E09398
S1130E70330167C0ED0120E030E0CE17DF0740F416
S1130E804A815B819E0141155105F1F0EA01F5CFDC
S1130E90D383C28340815181840F951FC817D9071A
S1130EA059F488819981840F951F029691838083D8
S1130EB08A819B81938382832115310529F4F093E0
S1130EC03601E09335013DC0E901FB83EA83499192
S1130ED05991C40FD51FEC17FD0761F480819181EE
S1130EE0840F951F0296E9019983888382819381F7
S1130EF09B838A83E0E0F0E012968D919C91139796
S1130F00009719F0FD01DC01F7CF8D919C911197A9
S1130F109D012E5F3F4F820F931F2091330130912B
S1130F2034012817390769F4309729F410923601EF
S1130F301092350102C013821282B0933401A0933F
S1130F403301DF91CF910895FC0188279927E89414
S1130F5021912032E9F3293010F02E30C8F32B32DE
S1130F6041F02D3239F4689404C00E94C207820F04
S1130F70911D219120532A30C0F31EF49095819540
S1130F809F4F08957AE0979F902D879F802D910D14
S1130F9011240895AEE0B0E0E0EDF7E00C94850A8A
S1130FA08C0186E08C831A8309838FEF9FE79E83ED
S1130FB08D83CE0101960E94E607EF81F885E00F4C
S1130FC0F11F10822E96E4E00C94A10AABE0B0E08D
S1130FD0ECEEF7E00C94770A6C017B018A01FC01CA
S1130FE017821682838181FFCCC1CE0101963C0118
S1130FF0F6019381F70193FD859193FF81917F0120
S1131000882309F4BAC1853239F493FD859193FF9D
S113101081917F01853229F4B60190E00E94DD09B7
S1131020E7CF912C212C312CFFE1F315D8F08B3232
S113103079F038F4803279F08332A1F4232D2061E1
S11310401DC08D3261F0803369F4232D216016C0F8
S1131050832D8260382EE32DE4603E2E2AC0F32DCA
S1131060F8601DC037FC2DC020ED280F2A3040F059
S11310708E32B9F436FC81C1232D2064322E19C07E
S113108036FE06C08AE0989E200D1124922E11C0CF
S1131090EAE02E9E200D1124222EF32DF0623F2E25
S11310A008C08C3621F4832D8068382E02C088361F
S11310B041F4F70193FD859193FF81917F018111A3
S11310C0B3CF982F9F7D9554933028F40C5F1F4F16
S11310D09FE399830DC0833631F0833771F08335F4
S11310E009F059C021C0F801808189830E5F1F4F28
S11310F088248394912C530113C02801F2E04F0EED
S1131100511CF801A080B18036FE03C0692D70E047
S113111002C06FEF7FEFC5010E94D2094C0182012A
S1131120F32DFF773F2E16C0280122E0420E511CFA
S1131130F801A080B18036FE03C0692D70E002C0C2
S11311406FEF7FEFC5010E94C7094C01F32DF068D2
S11311503F2E820133FC1BC0822D90E08816990635
S1131160B0F4B60180E290E00E94DD092A94F4CF45
S1131170F50137FC859137FE81915F01B60190E05E
S11311800E94DD0921102A9421E0821A9108811419
S1131190910471F7E8C0843611F0893641F5F801FD
S11311A037FE07C060817181828193810C5F1F4F7C
S11311B008C060817181072E000C880B990B0E5FAB
S11311C01F4FF32DFF763F2E97FF09C09095809512
S11311D0709561957F4F8F4F9F4FF0683F2E2AE0A7
S11311E030E0A3010E94190A882E861845C085376D
S11311F031F4232D2F7EB22E2AE030E025C0932D2A
S1131200997FB92E8F36C1F018F4883579F0B5C0BE
S1131210803719F0883721F0B0C0E92FE061BE2E85
S1131220B4FE0DC0FB2DF460BF2E09C034FE0AC00D
S1131230292F2660B22E06C028E030E005C020E148
S113124030E002C020E132E0F801B7FE07C060815F
S11312507181828193810C5F1F4F06C0608171810F
S113126080E090E00E5F1F4FA3010E94190A882EB0
S11312708618FB2DFF773F2E36FE0DC0232D2E7FC3
S1131280A22E891458F434FE0BC032FC09C0832DFD
S11312908E7EA82E05C0B82CA32C03C0B82C01C088
S11312A0B92CA4FE0FC0FE01E80DF11D808180332E
S11312B021F49A2D997EA92E09C0A2FE06C0B394EA
S11312C0B39404C08A2D867809F0B394A3FC11C0AA
S11312D0A0FE06C0B21488F4280C922C9B180EC0F1
S11312E0B21460F4B60180E290E00E94DD09B39488
S11312F0F7CFB21418F42B1802C0982C212CA4FE9A
S113130010C0B60180E390E00E94DD09A2FE17C080
S1131310A1FC03C088E790E002C088E590E0B60134
S11313200CC08A2D867859F0A1FE02C08BE201C060
S113133080E2A7FC8DE2B60190E00E94DD098914E9
S113134038F4B60180E390E00E94DD099A94F7CF67
S11313508A94F301E80DF11D8081B60190E00E94AA
S1131360DD098110F5CF222009F442CEB60180E2D6
S113137090E00E94DD092A94F6CFF60186819781D8
S113138002C08FEF9FEF2B96E2E10C94930AFC01CD
S11313900590615070400110D8F7809590958E0F9C
S11313A09F1F0895FC016150704001900110D8F70F
S11313B0809590958E0F9F1F08950F931F93CF9341
S11313C0DF93FB01238121FD03C08FEF9FEF2CC02E
S11313D022FF16C046815781248135814217530765
S11313E044F4A081B1819D012F5F3F4F318320835D
S11313F08C93268137812F5F3F4F3783268314C018
S11314008B01EC01FB010084F185E02D0995892B0A
S1131410E1F6D80116968D919C911797019617962F
S11314209C938E931697CE01DF91CF911F910F91CC
S11314300895FA01AA27283051F1203181F1E89466
S11314406F936E7F6E5F7F4F8F4F9F4FAF4FB1E0B3
S11314503ED0B4E03CD0670F781F891F9A1FA11DAE
S1131460680F791F8A1F911DA11D6A0F711D811DAF
S1131470911DA11D20D009F468943F912AE0269F74
S113148011243019305D3193DEF6CF010895462FD3
S11314904770405D4193B3E00FD0C9F7F6CF462FB4
S11314A04F70405D4A3318F0495D31FD405241931D
S11314B002D0A9F7EACFB4E0A695979587957795DA
S11314C06795BA95C9F700976105710508959B0161
S11314D0AC010A2E06945795479537952795BA95EA
S11314E0C9F7620F731F841F951FA01D08952F92C3
S11314F03F924F925F926F927F928F929F92AF92A0
S1131500BF92CF92DF92EF92FF920F931F93CF93EC
S1131510DF93CDB7DEB7CA1BDB0B0FB6F894DEBF83
S11315200FBECDBF09942A88398848885F846E84A9
S11315307D848C849B84AA84B984C884DF80EE80F3
S1131540FD800C811B81AA81B981CE0FD11D0FB6FC
S1131550F894DEBF0FBECDBFED010895F894FFCF20
S11315600000370120000400102001026379636C3D
S113157065733A2025690A006F09A7ADC9ECEE2905
S10D1580EFE9EBCE868FE6E280006F
S9030000FC
